S1230021CE002133C911C833C9000033C90000108EC8808E00572708A6C0A7A0301F26F8EB
S1230041108EC8D78E000027066FA0301F26FABD061F5D2F037FCBFE7EF0003460327AAF0F
S1230061E4EE6E8E0000AF62118300002736ECE410AE6230ABE684E764EC6C30ABE684E7A7
S1230081651F20C30001ED62335FE664E16527D8C6FFE762E664E1652504C601E762E66264
S12300A1326635E06F62E662326635E03460327CAFE4AE6C271FCE0000EF62ECE4AE623163
S12300C18BEC6A308BE684E7A4EC62C30001ED6210A36C26E6AEE4326435E03460327CAFD0
S12300E1E4AC6A242CAE6C2722CE0000EF62ECE4AE62318BEC6A308BE684E7A4EC62C3007C
S123010101ED62AE6C3406ACE126E3AEE4326435E0EE6C27F61F30C3FFFFED62EC6AEE62E7
S123012130CBECE431CB2007EC62C3FFFFED62E684E7A4313F301FEE6226EDAEE4326435FA
S11E0141E034603184EE66270E1E0233CB1E02E7803440ACE126F830A435E040
S123015CA6627EF2C31F107EF2C334401F13BDF37335C034401F13BDF37835C03440A664E3
S123017C1F13BDF37A35C034401F10EE64BDF37A35C034401F13BDF38535C034401F13BDC7
S123019CF38A35C034401F13BDF38C35C0A6627EF391A6627EF39334401F13BDF49535C0FF
S12301BC3440BDF49835C01F987EF4331F987EF434A6627EF3DFA6627EF3D81F987EF3DA09
S12301DCA6627EF3B71F987EF3B9A6627EF3BE34401F98EE64BDF61F35C03440EE64BDF6FA
S12301FC2235C03440EE64BDF62B35C0BDF5111F8939BDF5171F89391F98BDF57E1F893919
S123021CA662BDF5841F01391F98BDF5DB1F8939BDF5EF1F01391F98BDF65B1F0139BDF637
S123023C5D1F89391F98BDF6611F8939BDF6631F8939EC627EF54834401F98EE64BDF67F05
S123025C35C034401F98EE64BDF67F35C0A6627EF5521F987EF1B43460A666BDF7A935E02C
S123027C34601F981F12BDF83535E034401F98BDF85E35C0EC627EF87C3440EE64BDF8C72E
S123029C1F8935C03440EE64BDF8D835C0A6627EF256A6627EF25934401F13BDF27D35C0F3
S12302BC3440EE64BDF28435C03440BDF28935C034601F13BDF68735E034401F13BDF68D94
S12302DC35C03440EE64BDF69035C034601F13BDF69235E034401F13BDF92E35C0A6627EE6
S12302FCF2FC1F107EF2FCA6627EF3121F107EF3121F987EF2AB3460A66610AE67EE69BD6D
S123031CF8E5C600C90035E03460A66610AE67EE69BDF8F3C600C90035E03420A66410AEB8
S123033C65BDF8FFC600C90035A0A662BDF5FF1F0139A662BDF6011F01391F98BDF6031F6D
S123035C01393440A664EE65BDF61035C03440EE64BDF61335C03440EE64BDF61635C03481
S123037C201F12BDEA5D35A034201F12BDEA6D35A0342010AE64BDEA7F35A0342010AE64DE
S123039CBDEA8D35A034601F12EE66BDEAA835E03420A664BDE7B535A03420A664BDE7D257
S12003BC35A0BDEA5D1F01393460BDEACF35E03460BDEAB435E03460BDEAF035E08B
S12300006720474345203230313880FF44F85010A654524541535552452044495645528055
S104002000DB
S12303D9FF0507FFFE03FF0203FFFB07FF07FBFF0302FF03FEFF0705FFFBF9FF02FDFFFEF2
S11A03F9FDFF05F9FFF905FFFDFEFFFD02FFF9FB010000001103D919
S1230410C880327F6FE420026CE4BD0424E1E422F7326139F6C87A393440327F6FE4201161
S11C0430E6E44F5849CE041030CBAE84BD10BB6CE46DE427EB326135C023
S10F0449060306FDFAFDFA030104044951
S1230455C888C88DC892C8973460327FF6C887C10A10260082F6C885273DF6C8865CF7C812
S1230475866FE42020E6E44F5849CE045530CB10AE84E6E44F5849CE045530CBAE84E684B4
S12304955CE7A46CE4E6E4C10323DAF6C886C10526407FC885203BF6C8865AF7C8866FE4B4
S12304B52020E6E44F5849CE045530CB10AE84E6E44F5849CE045530CBAE84E6845AE7A468
S12304D56CE4E6E4C10323DAF6C8862605C601F7C8857FC8872007F6C8875CF7C88732613F
S12304F535E03440327F6FE42023E6E44F5849CE045530CBAE84E602C196260FE6E44F5820
S123051549CE045530CBAE84BD10BB6CE4E6E4C10323D7326135C03440327F6FE42012E6AD
S1230535E44F5849CE045530CBAE84C696E7026CE4E6E4C10323E8326135C0C603E7E2C66C
S123055501BD055C326139327DE7E4E762E665E761E662E7E2E662BD02733261326339470E
S1230575455420524541445900327FC601F7C81FC603F7C8207FC8217FC822BD0A91C64BFC
S1230595E7E42013BDF192BDF354C6C4E7E28E05745FBD0D4F32616AE426E9326139327FC1
S12305B5C601E7E42023BDF192BD0A9FBD0FC3BD0B78BD0FD9BD0428BD04F7BD045DBD0BAC
S12305D592BD0C2BE7E4BDF2A56DE426D932613947414D45204F56455200327FC696E7E4F3
S12305F52016BDF192BDF354C6BAE7E28E05E55FBD0D4F3261BD052C6AE426E6326139BDCB
S1230615057EBD05B3BD05EF5F39327FBD0614E7E427F9E6E4326139000103040607090A4F
S12306350C0E0F111214151718191B1C1E1F20222324262728292A2C2D2E2F30313233346F
S1230655353636373839393A3B3B3C3C3D3D3E3E3E3F3F3F3F3F3F3F403F3F3F3F3F3F3FF1
S12306753E3E3E3D3D3C3C3B3B3A3939383736363534333231302F2E2D2C2A2928272624E7
S12306952322201F1E1C1B191817151412110F0E0C0A09070604030100FFFDFCFAF9F7F6AB
S12306B5F4F2F1EFEEECEBE9E8E7E5E4E2E1E0DEDDDCDAD9D8D7D6D4D3D2D1D0CFCECDCC53
S12306D5CBCACAC9C8C7C7C6C5C5C4C4C3C3C2C2C2C1C1C1C1C1C1C1C0C1C1C1C1C1C1C191
S12306F5C2C2C2C3C3C4C4C5C5C6C7C7C8C9CACACBCCCDCECFD0D1D2D3D4D6D7D8D9DADC5B
S1230715DDDEE0E1E2E4E5E7E8E9EBECEEEFF1F2F4F6F7F9FAFCFDFF000103040607090A56
S12307350C0E0F111214151718191B1C1E1F20222324262728292A2C2D2E2F30313233346E
S1230755353636373839393A3B3B3C3C3D3D3E3E3E3F3F3F3F3F3F3F403F3F3F3F3F3F3FF0
S12307753E3E3E3D3D3C3C3B3B3A3939383736363534333231302F2E2D2C2A2928272624E6
S12307952322201F1E1C1B191817151412110F0E0C0A090706040301000103040607090A5A
S12307B50C0E0F111214151718191B1C1E1F20222324262728292A2C2D2E2F3031323334EE
S12307D5353636373839393A3B3B3C3C3D3D3E3E3E3F3F3F3F3F3F3F403F3F3F3F3F3F3F70
S12307F53E3E3E3D3D3C3C3B3B3A3939383736363534333231302F2E2D2C2A292827262466
S12308152322201F1E1C1B191817151412110F0E0C0A090706040301062D066D06AD072D74
S1230835000001020303040506070708090A0A0B0C0C0D0E0F0F101111121313141415163B
S1230855161717181819191A1A1B1B1B1C1C1C1D1D1D1E1E1E1E1F1F1F1F1F1F1F1F1F1FFB
S1230875201F1F1F1F1F1F1F1F1F1F1E1E1E1E1D1D1D1C1C1C1B1B1B1A1A191918181717D1
S123089516161514141313121111100F0F0E0D0C0C0B0A0A090807070605040303020100C5
S12308B50000FFFEFDFDFCFBFAF9F9F8F7F6F6F5F4F4F3F2F1F1F0EFEFEEEDEDECECEBEA83
S12308D5EAE9E9E8E8E7E7E6E6E5E5E5E4E4E4E3E3E3E2E2E2E2E1E1E1E1E1E1E1E1E1E183
S12308F5E0E1E1E1E1E1E1E1E1E1E1E2E2E2E2E3E3E3E4E4E4E5E5E5E6E6E7E7E8E8E9E96D
S1230915EAEAEBECECEDEDEEEFEFF0F1F1F2F3F4F4F5F6F6F7F8F9F9FAFBFCFDFDFEFF0038
S12309350835000000010101020203030304040505050606060707070808080909090A0ACC
S12309550A0B0B0B0B0C0C0C0C0D0D0D0D0D0E0E0E0E0E0E0F0F0F0F0F0F0F0F0F0F0F0FCF
S12309750F0F100F0F0F0F0F0F0F0F0F0F0F0F0F0F0E0E0E0E0E0E0D0D0D0D0D0C0C0C0C99
S12309950B0B0B0B0A0A0A0909090808080707070606060505050404030303020201010173
S12309B50000000000FFFFFFFEFEFDFDFDFCFCFBFBFBFAFAFAF9F9F9F8F8F8F7F7F7F6F6B3
S12309D5F6F5F5F5F5F4F4F4F4F3F3F3F3F3F2F2F2F2F2F2F1F1F1F1F1F1F1F1F1F1F1F1AD
S12309F5F1F1F0F1F1F1F1F1F1F1F1F1F1F1F1F1F1F2F2F2F2F2F2F3F3F3F3F3F4F4F4F4A3
S1230A15F5F5F5F5F6F6F6F7F7F7F8F8F8F9F9F9FAFAFAFBFBFBFCFCFDFDFDFEFEFFFFFF88
S1230A3500000937FF050AFF0A05FF0005FF0F00FF00FBFF0AFBFF05F6FF0500FF00F1FF44
S1230A55FB00FFFBF6FFF6FBFF00FBFFF100FF0005FFF605FFFB0AFF000F001002FF0B008C
S11F0A75FF04FCFF00F5FFFCFCFFF500FFFC04FF000BFF0404010000001C0A3913
S1230A91C664F7C89C7FC89DC632F7C89E39327ABDF1F8F6C81B6F625D2C04C601E762E6CB
S1230AB1622721BD0CBC5D2711F6C89DC1882D0AF6C89DCBFEF7C89D2039F6C89DCB02F78A
S1230AD1C89D202FF6C81B6F635D2F04C601E763E663271FBD0CBC5D2711F6C89DC17D2E91
S1230AF10AF6C89DCB02F7C89D2008F6C89DCBFEF7C89DF6C81C6F645D2F04C601E764E676
S1230B11642721BD0CBC5D2711F6C89CC1642E0AF6C89CCB02F7C89C2039F6C89CCBFEF74E
S1230B31C89C202FF6C81C6F655D2C04C601E765E665271FBD0CBC5D2711F6C89CC1822D2A
S1230B510AF6C89CCBFEF7C89C2008F6C89CCB02F7C89CBDF1BAF6C80FC408E7E4F6C80FB5
S1230B71C402E7613266398EC89CBD10BB39327FC601E7E420026CE4E6E4C11E23F83261C2
S1230B91393440327A6F657E0C1FF6C89DE7E4CBEAE761E6654F5849CE045530CBAE84E6D2
S1230BB101CB03E161102F0063F6C89DE7E4CB08E762E6654F5849CE045530CBAE84E601B5
S1230BD1CBFDE1622C46F6C89CE7E4CBF3E763E6654F5849CE045530CBAE84E684CB0CE1A5
S1230BF1632F29F6C89CE7E4CB19E764E6654F5849CE045530CBAE84E684E1642C0EE6650E
S1230C114F5849CE045530CBAE846F026C65E665C1031023FF74326635C0344032796F6603
S1230C317E0CACF6C89DE7E4CBE9E761E6664F5849CE041030CBAE84E601CB14E161102FB5
S1230C510057F6C89DE7E4CB08E762E6664F5849CE041030CBAE84E601E1622C3CF6C89CAF
S1230C71E7E4CBF6E763E6664F5849CE041030CBAE84E684CB14E1632F1FF6C89CE7E4CB73
S1230C9116E764E6664F5849CE041030CBAE84E684E1642C046F65200C6C666D661027FFD9
S1230CB182C601E765E665326735C0344032796F667E0D3DF6C89DE7E4CBE6E761E6664F3B
S1230CD15849CE0FB730CBAE84E601CB14E161102F0057F6C89DE7E4CB0CE762E6664F58C6
S1230CF149CE0FB730CBAE84E601E1622C3CF6C89CE7E4CBF6E763E6664F5849CE0FB73013
S1230D11CBAE84E684CB14E1632F1FF6C89CE7E4CB16E764E6664F5849CE0FB730CBAE8498
S1230D31E684E1642C046F65200E6C66E666C1051023FF80C601E765E665326735C032E821
S1230D51E3E767AF65E667E768E6E81FE769C602E7E81CE6E81CE762E6F805E764E6624FB5
S1230D71EDE430681E01E3E41E01E664E7846CE81CE6F805E7632704C601E763E663E762D0
S1230D91EC65C30001ED656D6226C8E6E81C5A4F3068308BC680E784BDF34A3068BD016FC4
S1230DB132E81D393273E765E766E66FE767C680E76BC604E76CE66CE763E6E8104FEDE47E
S1230DD18E000A3410AE62BD119832621F10E762CB30E764E6634FEDE430661E01E3E41E57
S1230DF101E664E7846A6CE6E8104FEDE48E000A3410AE62BD11A932621F10E7E810E66CFD
S1230E11C10122B2BDF34A3066BD016F326D3932E8EEE765E766E6E814E767C680E7E8109C
S1230E31C609E7E811E6E811E763E6E815E7E4C601E4E4E762CB30E764E6634FEDE43066FA
S1230E511E01E3E41E01E664E7846AE81164E815E6E811C10122CEBDF34A3066BD016F327F
S1230E71E81239342032E8EFE767AF65E667E768E6E815E769C680E76FC606E7E810E6E887
S1230E9110E76310AE658E000A341030A4BD119832621F10E762CB30E764E6634FEDE430BF
S1230EB1681E01E3E41E01E664E7846AE81010AE658E000A341030A4BD11A93262AF65E6C1
S1230ED1E810C10122B8BDF34A3068BD016F32E81135A0FF1400FF0014FFEC00FF00EC01AD
S1090EF1000000050EE400
S11C0EF7FF1400FF0028FFEC00FF00D8000014FF140001000000070EF7AE
S1220F10FF1400FF003CFFEC00FF00C4000014FF1400000014FFEC0001000000090F1073
S1220F2FFF1400FF0028FF1400FF00ECFFD800001414FFEC00FF00D801000000090F2F5E
S1220F4EFF2800FF0028FFD800FF00D8001400FF00280014ECFFD80001000000090F4E0B
S1230F6DFF1400FF0014FF2800FF0014FFC400FF00D8000014FF1400FF0014001400FF0019
S10B0F8DEC010000000C0F6DE3
S1230F95FF0028FF2800FF00C4FFEC00FF003C0014ECFFD8000000ECFF2800010000000A0C
S1050FB50F9592
S1230FB7C8A1C8A6C8ABC8B0C8B5C8CE327F6FE420026CE4BD0FD5E1E422F7326139F6C8C2
S1230FD77A393440327F6FE42011E6E44F5849CE0FB730CBAE84BD10BB6CE4E6E4C1052394
S1140FF7E9326135C0FEE8FEB6808000803F0001809A
S12310088E0FFCBFC8D38E1004BFC8D5397FC8777FC8678E1004BFC8D5397FC8568E0FFCC1
S1231028BFC8D339327EAFE4BD1015AEE4BFC8D3C601F7C856326239327EAFE4BDF742BD61
S12310481022AEE4BFC8D5C680F7C8673262393273E762AFE4E66258E763ECE4E764E6635C
S12310686C63E768E664E767E668E7E2E668BD02A93261ECE41F894FE765E663E76AE66556
S1231088E769E66AE7E2E66ABD02A93261E662CB08E766E76CE66FE76BE66CE7E2E66CBD04
S12310A802A93261C607E7E2C638BD02A93261326D396E342032E8EBAF64E601E7E4E6F815
S12310C804E767E6E4E766C6CCD70CC66ED704E667E769E666E768E669E7E2E669BD0303B5
S12310E83261AE64AE03E684E7612708E661C101271C2049AE64AE0310AE02AE64E602E794
S12311086C10AF6AAE6AE66CBDF40E7E1175AE64AE0310AE02AE64E602E762AE64AE03E692
S1231128015AE7E810E662E76F10AF6DE6E810E7E2AE6EE6E810BD01D232612030AE64AECB
S12311480310AE02AE64E602E763AE64AE03E6015AE7E814E663E7E81310AFE811E6E814D0
S1231168E7E2AEE812E6E814BD01DC326132E81535A0327CBDF1AFBEC8D5AFE4BD02F0BE79
S1231188C8D3AF62BD02CCBDF192BD02C5326439EC6226037EF0003410BD11B732621F0117
S12311A839EC6226037EF0003410BD11B73590327D6F606C604D2B066C60584920F8ED61DC
S12311C8EC656F656F66A3612406E3611CFE20021A0169666965646166626A6026E83263A9
S10411E839C9
S9030000FC
